:020000040800F2
:10000000008001205D4500089145000891450008E9
:100010009145000891450008914500080000000046
:1000200000000000000000000000000091450008F2
:100030009145000800000000914500089145000826
:100040009145000891450008914500089145000838
:100050009145000891450008914500089145000828
:100060009145000891450008914500089145000818
:100070009145000891450008914500089145000808
:1000800091450008914500089145000800000000D6
:100090000000000000000000000000009145000882
:1000A00091450008914500089145000891450008D8
:1000B00091450008914500089145000891450008C8
:1000C00091450008914500089145000891450008B8
:1000D0009145000891450008914500080000000086
:1000E0009145000891450008914500080000000076
:1000F0000000000000000000000000009145000822
:100100000000000091450008914500089145000855
:1001100000000000000000000000000000000000DF
:100120009145000891450008914500089145000857
:1001300091450008000000000000000000000000E1
:1001400000000000000000000000000091450008D1
:100150009145000891450008914500089145000827
:1001600091450008914500080000000000000000D3
:10017000000000000000000000000000000000007F
:100180000000000091450008000000000000000091
:100190009145000810B5054C237833B9044B13B1D1
:1001A0000448AFF300800123237010BDA80C002089
:1001B00000000000F4700408084B10B51BB108499A
:1001C0000848AFF300800848036803B910BD074B27
:1001D000002BFBD0BDE81040184700BF0000000016
:1001E000AC0C0020F4700408A00C002000000000FB
:1001F000154B002B08BF134B9D46A3F5803A0021F9
:100200008B460F461348144A121A30F031FC0F4B3C
:10021000002B00D098470E4B002B00D098470020B1
:10022000002104000D000D48002802D00C4803F006
:10023000C4FE2FF0F3FD2000290003F07DFE03F043
:10024000B9FE00BF0000080000800120000000008F
:100250002B3F0008A80C002024330020BB3F0008DF
:100260000000000073B5044615461E4601F02EFA44
:10027000BDF91C3000933246BDF91830294604F10F
:100280001C0001F039FB204602B070BD10B50446D9
:100290001C3001F0A6FA204601F038FA204610BDC5
:1002A00007EE901AB3EE077AF4EEC77AF1EE10FA81
:1002B00008D8BBEE077AF4EEC77AF1EE10FA01DB4C
:1002C00001F026BA7047000006EE901ADFED047ABE
:1002D00086EEA77A1C3017EE101A01F0A9BA00BFFB
:1002E0000000C8421C3001F0CDBA000006EE901AA2
:1002F000DFED047A86EEA77A1C3017EE101A01F0B3
:1003000099BA00BF0000C8420078704770B50C462B
:10031000002304F8043B064605460FCC0FC50FCC5E
:100320000FC594E8030085E80300304670BD000067
:1003300070B592B010AB07930FAB06930EAB05935D
:100340000DAB04930CAB03930BAB02930AAB01937D
:1003500009AB0093044615460846012608AB11AACE
:100360001649119631F002F80A2820D1DDED107AF5
:10037000F5EEC07AF1EE10FA19DD119BB34216D8F2
:1003800033402371089BA360099BE3600A9B2361B0
:100390000B9B63610C9BA3610D9BE3610E9B23622E
:1003A0000F9B6362C4ED0A7A2670054900E0054997
:1003B000284630F0B5FF12B070BD00BF64130408CA
:1003C0008213040888130408FFF7B2BF7047704710
:1003D00070477047704710B51421044606F072F953
:1003E000204610BD10B51C21044606F06BF92046CE
:1003F00010BD10B57821044606F064F9204610BD02
:1004000010B52421044606F05DF9204610BD10B554
:100410009421044606F056F9204610BDD0ED237A0B
:10042000F5EEC07AF1EE10FA09DBB7EE007AF4EEE1
:10043000C77AF1EE10FA94BF012000207047002027
:10044000704700797047000010B5054B0446202224
:1004500040F8043B002130F00BFB204610BD00BFEC
:10046000A013040810B5054B0446182240F8043BBD
:10047000002130F0FDFA204610BD00BFB013040883
:1004800010B5054B0446102240F8043B002130F023
:10049000EFFA204610BD00BFC01304080D4B10B585
:1004A00003600D4B83600446202200210C3030F0A5
:1004B000DFFA04F12C00FFF7C7FF04F15000FFF74B
:1004C000D1FF04F16C00FFF7DBFF002384F89030CC
:1004D000204610BDE8130408D01304082DE9FF419D
:1004E00007460C46FFF7BEFF3E4600254FF00008CA
:1004F000013507EE905AF8EEE77ACDF800802269D0
:10050000E16817EE903A02A83FF03AFB039B029A8B
:100510007260032D46F8083F04F10804E8D138461C
:1005200004B0BDE8F0817FB50D4600260446FFF714
:10053000A7FF2A69E968009602A84FF07E533FF0B2
:100540001FFB029B6360039BA36002A800964FF011
:100550008043AA6969693FF013FB029BE360039B38
:100560002361204604B070BD91ED007AD0ED007A91
:1005700077EEC77AC0ED007A91ED017AD0ED017A7D
:1005800077EEC77AC0ED017A704700002DE9F04F91
:100590000C4689B00546271DFFF756FFE368069312
:1005A000002623690793394606A8FFF7DDFF079A5F
:1005B0000699009602A8384B3FF0E2FA374BE16803
:1005C0001A685B68049205932269009602A84FF0AE
:1005D0008043DDF808B0DDF80CA03FF0D1FA029BB3
:1005E0000493039B05936368069304A9A368079388
:1005F00006A8FFF7B9FFD4ED066ADDED077A94EDA2
:10060000057A009676EEA77A02A817EE902ADDED1D
:10061000067A214B77EE277A17EE901A3FF0B0FA60
:10062000E368069304F114012369DDF80890DDF80E
:100630000C80079306A8FFF797FF079A164B0699B9
:10064000009602A83FF09CFA94ED087ADDED037A5B
:10065000DDED026A77EE877A94ED077ACDED057AC3
:1006600037EE267A394604A88DED047AFFF77CFF31
:10067000A3686268AB60049BEB61059B6A602846D7
:10068000C5F80CB0C5F810A0C5F81490C5F81880CE
:100690002B6209B0BDE8F08F00004040D813040879
:1006A00070B58AB003610E9B43610F9B8361109B01
:1006B000C361119B017103621499129BC0F88010F1
:1006C00043621599139BC0F884100446C26083628C
:1006D00000F1080102AE01A8FFF758FF0FCE04F1A8
:1006E00030050FC596E80F0002AE85E80F0004F153
:1006F0002C0101A8FFF7F2FE0FCE04F154050FC53F
:1007000096E8030085E8030004F1500101A8FFF713
:100710000AFFD4ED206A94ED217AC6EE877A02AB07
:100720000FCB04F1700585E80F00FDEEE77A17EEB8
:10073000900A3EF05FFE02460B46002007493EF05D
:10074000E9FF3FF0B5F90023C4F88C300123C4F869
:10075000880084F890300AB070BD00BF0000F03F00
:100760002DE9F04FD1E9006785B000240025019004
:10077000884691462B462246304639463FF008F9D6
:1007800030B122462B46D8E902013FF001F9E8B921
:1007900098ED027B0024002522462B4651EC170BD6
:1007A0008DED027B3FF0F4F8B0B122462B46304687
:1007B00039463FF015F978B1D9E90023304639467A
:1007C0002BF02AFC019BC3E9000102E0019BC3E975
:1007D0000045C3E902457DE0039B029C27F0004BE6
:1007E00023F0004522462B4630465946B2463FF09C
:1007F000D9F808B1A246AB4600220023504659461C
:100800003FF0C6F860BB52465B46304639463EF084
:1008100081FF524604460D465B46DDE902013EF08B
:1008200079FF224606460F462B46204629463EF0D3
:1008300047FE324604460D463B46304639463EF0BA
:100840003FFE02460B46204629463EF087FC2BF031
:1008500067FD02460B46504659463EF031FE01E028
:10086000504659462BF058FBD8E9002304460D4664
:10087000D8E902012BF0D0FAD9E9002306460F4649
:10088000204629463EF01CFE2BF0CAFAD9E9002387
:1008900004460D46304639463EF012FE80468946F3
:1008A0002BF02AFA02460B46204629463EF008FE67
:1008B00006460F46404649462BF06AFA019B02461F
:1008C000C3E9006720460B4629463EF0F9FD019B2F
:1008D000C3E90201019805B0BDE8F08F00000000F7
:1008E0002DE9F04F2DED0A8B91F890309FED948A11
:1008F00095B005460C46934623B980ED008A80EDFD
:10090000018A09E19FED88AB01F1540AB0EE489AE3
:100910004FF000090DF128080EAF58463EF07CFD5F
:10092000CDE90201CDE9100148468DED12AB3EF054
:1009300061FD10AE3A46CDE90E0131464046FFF763
:100940000FFF9DED0A7BDAF800300793DDE90C011B
:100950008DED047B3FF0ACF80690DDE904013FF03B
:10096000A7F8DAED018A079BCDED008A0146069AC9
:1009700008A83FF005F9DDED088ADDED099A78EE6B
:10098000888A79EE899A09F10109B9F1030F0AF110
:10099000080AB0EE688AB0EE699A9FED63BBBCD1DD
:1009A000B1EE69CA18EE903A19EE902A18EE901A34
:1009B00008A88DED00CA3FF0E3F808989FED608A23
:1009C0003EF02AFD2BF0ACFC3FF072F8D4ED207A1B
:1009D0000AEE100ACAEE27AA70344FF00009B0EEF2
:1009E000489A9DED027B48468DED107B8DED12BB44
:1009F0003EF000FD3A46CDE90E0131464046FFF794
:100A0000AFFE23680693DDE90C013FF051F8DDE904
:100A10000AAB0490594650463FF04AF8D4ED01CA5B
:100A2000069BCDED00CA0146049A08A83FF0A8F83D
:100A3000DDED087A09F1010938EE278ADDED097A42
:100A4000B9F1020F04F1080437EE899AC9D1F1EE29
:100A5000497ACDED007A18EE103A19EE902A18EE88
:100A6000901A08A83FF08CF819EE102A18EE903A68
:100A700018EE101A08A88DED00CADDF82080099C38
:100A80003FF07EF8089B0E933946099B0F93304642
:100A9000CDF840801194FFF767FD00244FF04043EC
:100AA0000093119A1099234608A83FF01BFAB5EE5F
:100AB00040AAF1EE10FADDF8208003D1C5ED00AABE
:100AC0006C6029E01AEE100A3EF0A6FC00221D4BD5
:100AD0002BF0A2FA06460F4640463EF09DFC3246F9
:100AE0003B463EF017FE3EF0E3FF3EF095FC10A3C0
:100AF000D3E900233EF0E4FC2AF05EFFC5ED00AA36
:100B00003EF0D6FF3EF088FC0BA3D3E900233EF075
:100B1000D7FC3EF0CDFF6860284615B0BDEC0A8BCF
:100B2000BDE8F08FAFF3008000000000000000007F
:100B3000F6285C8FC2F5D03FF8C1631ADCA54C40A3
:100B4000000000000000084038B5D1F88C200C46A9
:100B50000546FFF7C5FED4ED237A94ED227A77EEB1
:100B6000877A2846C4ED237A38BD000010B5054CBD
:100B7000204606F091F82046034A0449BDE810409B
:100B800003F016BAC40C002098010020B56C0008D0
:100B90007047034610B103C983E8030070477047EC
:100BA00003684068184710B54FF48871044605F093
:100BB00089FD204610BD000073B5044616460D465B
:100BC00001B9BAB9731B0F2B019307D9002201A9F0
:100BD000204616F017FE019B2060A360324629468E
:100BE000206816F061FE019B226863600021D154E9
:100BF00002B070BD014806F08DFB00BF0C15040863
:100C000070B5044672B6FF263546206905F0A6F990
:100C100080B3D4F81831D4F81C110133B3FBF6F2C9
:100C2000C2EB02229B1A8B4224D02069BC3005F013
:100C300021F9D4F81831D4F81C110133B3FBF6F2C2
:100C4000C2EB02229B1A8B42DFD0D4F81831234426
:100C5000C0B21876D4F818310133B3FBF5F2C2EB09
:100C600002229B1AC4F81831D4F820310133C4F899
:100C70002031CAE762B670BDFFF7C2BFC36810B5C6
:100C800004460BB19B689847204610BDD0F8082158
:100C900010B50132D0F80441FF23B2FBF3F1C1EBF0
:100CA0000121521AA24214D0D0F808210132B2FB1D
:100CB000F3F3C3EB0323D31AC0F80831D0F808319B
:100CC00003441B79D0F80C21013AC0F80C211846D6
:100CD00010BD002010BDF8B5044672B6FF2600F521
:100CE0009275206905F04BF9B0B1D4F82C32D4F8E4
:100CF00028120133B3FBF6F2C2EB02229B1A8B429D
:100D00000AD0206900F1BC072846FFF7BFFF014663
:100D1000384605F09BF8E4E762B6F8BDFFF7DBBFA5
:100D20002DE9F043D0F81C31D0F818110133FF221F
:100D3000B3FBF2F2C2EB02229B1A8B42ADF5097DA6
:100D4000044600F09B801430FFF7A0FF23280746DD
:100D500004D184F8340204F235238DE0D4F834331E
:100D600004F54D72934200F089800A287ED113F871
:100D7000032C3B2A7AD113F8022C3B2A76D113F8A4
:100D8000013C0D2B72D104F50D7808AB6A463D4944
:100D9000404630F0EBFA022866D14AAB68464893E9
:100DA00031F04EFD69460DEB000248A8FFF704FF45
:100DB00004F54F79D4F840634D4666B106F1100052
:100DC00048A917F0BDF80028B6BFF368B3682E46EF
:100DD00035461E46F1E7A94508D005F1100148A89F
:100DE00017F0AEF835EA200528BF4D4648A816F0A2
:100DF0002FFDA94538D0244B48AA03F1100E1868DE
:100E00005968164603C6083373453246F7D11B8826
:100E10003380EE2200210DF599702FF029FE04ABEE
:100E200048A8029331F00CFD48AB1A18194602A8E5
:100E3000FFF7C2FE6B6B05F128062BB940F21D626D
:100E40001249134805F02EFB6B6B48AA1B6808A9D2
:100E50003046984720690F4948AB6A46BC3005F0D8
:100E60001BF802A816F0F4FCC4F83483D4F8343329
:100E70001F70D4F834330133C4F834330DF5097DD1
:100E8000BDE8F083361504080C1404084015040866
:100E90005C1504086115040870B506460C469CB143
:100EA0003046E168FFF7F8FF636BA56804F128009E
:100EB0000BB19B68984704F1100016F0C9FC20465E
:100EC00003F0E0F82C46EAE770BD000010B5074BD0
:100ED000D0F840130360044600F54E70FFF7DCFFC6
:100EE000204600F08FFB204610BD00BF741504089B
:100EF00010B50446FFF7EAFF20464FF4547105F0A1
:100F0000E1FB204610BD38B5CB6804460D460BB159
:100F10005B689847EB68E360204638BD2DE9F047F1
:100F2000804638200D461646994603F093F804464D
:100F3000103009D005F1100117F040F805F1280133
:100F400004F12800FFF7DFFF2B78E9682370002306
:100F5000A360E360666029B14B4622464046FFF736
:100F6000DDFFE060AE6827464FF0000A16B3382078
:100F700003F070F80546103009D006F1100117F0A3
:100F80001DF806F1280105F12800FFF7BCFF3378B2
:100F9000C5F80CA0F1682B70C5F808A0BD606F60A3
:100FA00029B14B462A464046FFF7B8FFE860B668CD
:100FB0002F46DBE72046BDE8F08700002DE9FF4122
:100FC00004460D460021174600F012FB3D4B2360FE
:100FD0003D4B2561636104F1180104F217101A46B4
:100FE000002501F8015B81424FF00003F9D1FE2199
:100FF000C4F81831C4F82421C4F81C1104F5947203
:10100000C4F8203104F2272102F8013B8A424FF054
:101010000005F9D1FE2304F50D76C4F828524FF4EB
:101020008072C4F82C3229463046C4F830522FF072
:101030001FFDC4F8346304F54F762946102230466C
:101040002FF016FDC4F84463C4F84863B968C4F8C7
:101050004C5304F54E78C1B16B4632464046CDF84C
:101060000080FFF75BFFC4F8400303469A680AB1AB
:101070001346FBE7C4F84433C3680BB11846FBE7DB
:101080007B69C4F84803C4F84C33104B104D2069F9
:101090000395694600228DE8180004F0F5FF6846C4
:1010A000FFF7ECFD0B4B20690395012269468DE8A3
:1010B000180004F0E9FF6846FFF7E0FD204604B0A1
:1010C000BDE8F08174150408F8130408790C0008D1
:1010D000001404081D0D0008022380F82530704715
:1010E000034610B107C983E807007047704742689C
:1010F0000368806812F0010F4FEA620218BF81583E
:10110000104418BFCB581847F0B52DED028B04469C
:1011100093B0806AFFF7F8F800B3012384F8243015
:1011200084F82530A16A08A8FFF7F0F8236A07932E
:10113000119B06930F9B0493109B05930D9B0293A9
:101140000E9B03930B9B00930C9B01939DF8201027
:10115000099A0A9B04F12C00FFF7A2FA94F82430B4
:10116000002B59D004F12C052846FFF757F9064605
:10117000002845D0294608A8FFF7E6FC2846089E27
:10118000FFF75FF994F826300028BFEE008AF7EEEB
:10119000007A18BFB0EE678A3046ABB13EF03CF93A
:1011A0000022594B3EF08CF9064618EE100A0F4605
:1011B0003EF032F902460B46304639463EF080F9A1
:1011C0003EF076FCA06118E03EF026F946A3D3E994
:1011D00000233EF09FFA46A3D3E900233EF070F9C6
:1011E00045A3D3E900233DF0B9FF3EF061FC07EED3
:1011F000900A27EE888A84ED068A099BE3610BE05A
:1012000020694249BC3004F047FE0023A361022359
:1012100084F8253084F8246094F82530022B4BD0D4
:10122000E269A169D4F8EC0000F05DFE002853D11A
:1012300094F82530012B02D0022B51D13CE0E1691A
:101240006069FFF72DF894F82630DBB1A0693EF015
:10125000E3F82BA3D3E900233EF032F902460B4614
:10126000D4F8E80000F0F7FBD4F8E80000F0FEFB4B
:10127000D4F8E800656900F0F1FB3EF019FC014686
:10128000284612E0D4ED067AB3EE047AF4EEC77A7B
:10129000F1EE10FA24D5BBEE047AF4EEC77AF1EE43
:1012A00010FA1DDD17EE901A606913B0BDEC028BC9
:1012B000BDE8F040FFF708B8E1696069FEF7F0FFAC
:1012C0006069FFF70FF8D4F8E80013B0BDEC028BAB
:1012D000BDE8F04000F0C5BB022384F82530A7E745
:1012E00013B0BDEC028BF0BDC381902C6002B33F04
:1012F000659DFE82F888DA3F72D1884E9DA013402A
:10130000E1021AB67793DB3F00005940A8150408A4
:1013100070B5044616461D4600F06AF9154B236069
:101320000023A361E361059B656123620025049BA3
:10133000A362266184F8245004F1C00684F8265084
:1013400004F12C00FFF7AAF82822294630462FF096
:101350008FFB304604F050FF074BC4F8C030079BAA
:10136000C4F8E830069BC4F8E450C4F8EC302046DA
:1013700070BD00BF981504086022040837B5044604
:101380001546084601AB6A460B492FF0EFFF0228CD
:101390000BD1009BA361019BE361002384F82430FF
:1013A000012384F82530054900E0054928462FF03F
:1013B000B7FF03B030BD00BF7C13040882130408DC
:1013C00088130408FFF7DABF37B504461546084608
:1013D00001AA0D492FF0CAFF01280ED10023A361F5
:1013E000019BE361022384F8253000220023D4F816
:1013F000E80000F030FB054900E0054928462FF0E1
:101400008FFF03B030BD00BF7F13040882130408B0
:1014100088130408FFF7D8BF37B5144602AA002383
:10142000054642F8043D084609492FF09FFF012870
:1014300008D1019B0749002BD4BF0023012385F865
:10144000263000E0044920462FF06AFF03B030BD8B
:101450000D1804088213040888130408FFF7DCBF82
:1014600038B50546064B45F8183B044604F084FEA3
:101470002846FFF703FC204604F0DEFE204638BD78
:101480004822040810B50446FFF7EAFF2046282149
:1014900005F018F9204610BD38B5CB6804460D4656
:1014A0000BB15B689847EB68E360204638BD0000ED
:1014B000F0B58BB004461646084601AB6A461E4995
:1014C0002FF054FF022831D194F8253073B3002354
:1014D000A361019BE36100996069FEF707FF174B69
:1014E00002930023039304F1D805154B049402A939
:1014F00006A80593FFF7D0FF284604F1C007FFF7C1
:10150000BDFB1DB106A92846FFF7C6FF49F64041BD
:10151000384604F01DFE06A8FFF7B0FB02A8FFF74F
:10152000ADFB002384F82530064900E0064930462B
:101530002FF0F6FE0BB0F0BD7C130408D9100008A4
:10154000841504088213040888130408FFF7B0BF49
:1015500010B5054C204605F09FFB2046034A044980
:10156000BDE8104002F024BDC50C00209801002009
:10157000B56C000810B5084B0360084B044640F8F2
:10158000C03FFFF76DFF04F12C00FEF71FFF204660
:1015900000F038F8204610BD9815040860220408B1
:1015A00010B50446FFF7E6FF2046F02105F08AF863
:1015B000204610BDF0B5002384681D4601269C42DC
:1015C0000CD0426852F82320916857680131B94223
:1015D000916024BF167395600133F0E7F0BD027B84
:1015E00022B1036800220273DB68184770470000CD
:1015F000034A02600022416082600273704700BFAC
:10160000C01504087047000038B50446054B44F87F
:101610000C3B0546204604F0AFFD2046FFF720FFB7
:10162000284638BDD815040810B50446FFF7ECFF6E
:101630002046342105F046F8204610BD70B52DED4A
:10164000028B00F10C0608EE103A1B4B036088B0C9
:10165000044641608260304604F0CEFD174BE360E3
:1016600000232363164B69468DE8180004A8154B28
:101670000393FFF711FFDFED147A04F1240528EE40
:10168000278A2846BCEEC88AFFF7F8FA1DB104A9DC
:101690002846FFF701FF18EE101A304604F058FDF7
:1016A00004A8FFF7EBFA6846FFF7E8FA204608B00F
:1016B000BDEC028B70BD00BFD81504084822040899
:1016C000B5150008001404080024744938B5044610
:1016D0000D4604F001FF2946204602F07BFA04F093
:1016E00025FF04F0F9FE2046142102F03BFB04F034
:1016F0001DFF04F0F1FE2046034902F05FF904F0FB
:1017000015FF204638BD00BFAC1C9A3D7047000055
:1017100038B50D46044604F0DFFE28463DF07CFE59
:1017200009A3D3E900233DF0CBFE09A3D3E90023AD
:101730003DF014FD3EF0BCF90146204602F03EF9B2
:10174000BDE8384004F0F2BE40BD19355F254F3F7B
:10175000DD2406819543B33F704710B50C21044644
:1017600004F0B0FF204610BDB0F90030013310B5D1
:10177000044604D148220649064804F093FEA368B3
:101780001A6863681A4214BF0120002010BD00BF10
:10179000F81504082E16040838B5B0F900300133E6
:1017A00004460D4604D13A220549064804F07AFE63
:1017B00063680DB1E26801E022691B04136038BD63
:1017C000F81504082E16040838B504460D4604F032
:1017D00083FE2946204602F0F1F8BDE8384004F0C7
:1017E000A5BE704738B52DED028B08EE101AB5EE88
:1017F000C08A0446F1EE10FA00F1200004F134052D
:1018000004D50021FFF7C8FF012103E00121FFF704
:10181000C3FF00212846FFF7BFFFF0EEC87A17EE9E
:10182000901A04F10800FFF7CFFFBDEC028B38BD22
:10183000FFF7D8BF38B500F120052DED028B044627
:10184000284608EE101AFFF78FFFB0FA80F1490919
:10185000284604F13405FFF79FFF2846FFF784FF71
:10186000B0FA80F149092846FFF796FFF0EEC87AF2
:1018700017EE901A04F10800FFF7A6FFBDEC028BEB
:1018800038BD000010B5002104462030FFF784FF6A
:1018900004F134000021FFF77FFF034904F1080041
:1018A000FFF792FF10BD00BF0000C842034610B50D
:1018B00053F8042B044602B9036022689A4204D00C
:1018C00059220349034804F0EDFD206810BD00BF14
:1018D000461604086816040808B50248FFF7E6FF34
:1018E00008BD00BFA41B002008B50248FFF7DEFFBB
:1018F00008BD00BFA41B00202DE9F84304460E4696
:1019000004F1080598469146142704F0E5FD314698
:10191000284604F1200602F05DF904F007FE3A467D
:10192000002130462FF0A4F84946304604F1340631
:1019300004F0D2FC3A46002130462FF099F8414697
:101940003046104E04F0C8FC0F4BA3643046FFF73E
:10195000ADFFBDF9201004F14C0001F041FC304610
:10196000FFF7A4FF04F0B8FD2846C82102F09AF85A
:1019700004F0DCFD054B2360002363602046BDE8D6
:10198000F88300BFA41B0020E81504080AD7233CF5
:1019900010B5034B03600446FFF734FE204610BD2C
:1019A0008416040810B50446FFF7F2FF20462421F0
:1019B00004F088FE204610BD38B5B0F91030013370
:1019C000044604D148220C490C4804F06BFDA3697D
:1019D0001D6863691D40B4F91030013304D13A2207
:1019E0000549064804F05EFD63690DB9E26901E04E
:1019F000226A1B04136038BDF81504082E1604086B
:101A000082B070B5064604AC84E80C003446FFF79B
:101A1000EFFD04AD0B4B44F8103B0FCD0FC42B680A
:101A20002360B6F91030013304D13A220649074841
:101A300004F038FDF36972691A603046BDE8704001
:101A400002B0704784160408F81504082E1604081E
:101A500080E806007047C0E902237047D0E904011E
:101A60007047406803685B6818470000F7B5044694
:101A7000006800F017F9E368054623F00041A0680C
:101A80003EF016F83DF0C8FC064628460F463DF0ED
:101A9000C3FC02460B46304639463DF05DFB02ABC7
:101AA00063E90201606802681946126890470022E3
:101AB000134B06460F463DF075FF48B90022114B07
:101AC000304639463DF08CFF20B100260D4F01E035
:101AD0000B4F0026DDE90023C4E90467C4E90623AF
:101AE000D4E90201002200233DF05CFF18B107F1A8
:101AF000004326616361D4E9040103B0F0BD00BF77
:101B0000000024C00000344000690249BC3004F0E9
:101B1000C3B900BFAC16040810B5034B03600446FC
:101B2000FFF770FD204610BD9C16040810B5044652
:101B3000FFF7F2FF2046142104F0C4FD204610BD3B
:101B400038B504461546FFF753FD024B2360256167
:101B5000204638BD9C160408836C013383647047AB
:101B6000D0ED167A90ED177AF8EEE77A0023C7EEFB
:101B7000876A8365D0ED187AF8EE677A86EEA77AE1
:101B800080ED197A7047002383647047806C70473A
:101B9000406E70477FB5044604F00EF80023A3643E
:101BA00069460C4E0C4D009620460194039504F0B6
:101BB00039F86846FFF762F86946204600960194B6
:101BC000039504F059F86846FFF758F8204604B02A
:101BD00070BD00BF591B00080014040870B504460E
:101BE00016461D46FFF704FD2046064B40F8103B05
:101BF000BDF91010FFF7CEFF0023E665256663668A
:101C0000204670BDB816040810B5054B044640F8D0
:101C1000103B03F0A3FF2046FFF7F4FC204610BD65
:101C2000B816040810B50446FFF7EEFF20466821F9
:101C300004F048FD204610BD38B500F110050446FB
:101C40002DED028B2846FFF7A1FF08EE100A28466B
:101C5000FFF799FFD4ED177AA06EB8EEC88A036833
:101C6000C8EE276A1B6804F16401D4ED187AF8EE17
:101C7000677A86EEA77A84ED197A9847BDEC028BD5
:101C8000E06638BD37B5BDF9185000950446FFF73A
:101C9000A5FF034B2360079BA366204603B030BD1E
:101CA000D0160408C06E704710B5054B044640F8C6
:101CB000103B03F053FF2046FFF7A4FC204610BD65
:101CC000B816040810B50446FFF7EEFF2046702151
:101CD00004F0F8FC204610BD82B070B5064604A89A
:101CE00080E80C000431334603C9094A43F8042B49
:101CF00004AD83E803000FCD06F10C040FC42B687C
:101D00002360002330463362BDE8704002B0704764
:101D1000E815040870470000B0F90C30013310B525
:101D2000044604D13A220449044804F0BBFBA369E9
:101D300022691A6010BD00BFF81504082E160408A9
:101D4000B0F90C30013310B5044604D13A220449ED
:101D5000044804F0A7FB2369E2691B04136010BD6B
:101D6000F81504082E160408006A704700000000E9
:101D7000B0F90C3001332DE9F047824604D14822F6
:101D80004B494C4804F08EFBDAF814301A68DAF844
:101D900010301A4202D10020BDE8F0874648FFF714
:101DA00085FD0AF1040001F07FFA04464248FFF77E
:101DB0007DFD20463DF030FB0022404B04460D46A1
:101DC0002AF02AF90022804689463D4B20462946C2
:101DD0002AF022F92AA3D3E9002306460F464046FB
:101DE00049463DF06DFB28A3D3E900238046894690
:101DF000304639463DF064FB02460B4640464946B4
:101E00003DF0ACF9002206460F462E4B20462946EF
:101E10002AF002F91EA3D3E900233DF051FB32461C
:101E20003B463DF09BF9002206460F464FF08043AB
:101E3000204629462AF0F0F817A3D3E900233DF005
:101E40003FFB32463B463DF089F915A3D3E9002319
:101E500006460F46204629463DF032FB02460B4619
:101E6000304639463DF07AF90FA3D3E900233DF01F
:101E700075F93DF01DFECAF82000BDE8F08700BFEF
:101E8000ABD4266D7F9CD2C06BEBAF1057C8E4403B
:101E90006FB081BEF448E2C03A00C9D1A718D04063
:101EA0004D2A01CE165DADC0019F06A997BB7840B3
:101EB000F81504082E160408A41B00200000144086
:101EC000000010400000084030B543610025039B2E
:101ED000057083610025049B45608560C1600261D7
:101EE000C36130BD704738B505782DED028B0446CF
:101EF00007EE101A0DB9002544E0B5EEC07AF1EEF8
:101F000010FA61608260F6DDF7EE007A87EE878A6C
:101F1000C068F2EE047A27EEC88AF1EE047AA7EEE2
:101F2000278AFFF721FF07EE900AB4EEE78AF1EE69
:101F300010FA27DA2069FFF717FF07EE900AB4EED0
:101F4000E78AF1EE10FA1DDA6069FFF70DFF07EE80
:101F5000900AB4EEE78AF1EE10FA13DAA069FFF7FF
:101F600003FF07EE900AB4EEE78AF1EE10FA09DA01
:101F7000E069FFF7F9FE07EE900AB4EEE78AF1EEAA
:101F800010FAB8DBBDEC028B284638BD37B51446D5
:101F900002AA0023054642F8043D084609492FF0ED
:101FA000E5F9012807D1019B0749002BD4BF002385
:101FB00001232B7000E0054920462FF0B1F903B052
:101FC00030BD00BF0D1804088213040888130408EC
:101FD000FFF7DCBF10B5034B03600446FFF712FBAD
:101FE000204610BDE816040810B50446FFF7F2FFBE
:101FF00020461C2104F066FB204610BD437B10B533
:10200000044673B10069FFF7C3FD3DF005FAA4690A
:1020100002460B4604F1BC000249BDE8104003F043
:102020003BBF10BDF816040870B504461D461646A1
:10203000FFF7DEFA044B236000236373049B2661E1
:102040006561A361204670BDE816040837B51446E3
:1020500002AA0023054642F8043D084609492FF02C
:1020600085F9012807D1019B0749002BD4BF002324
:1020700001236B7300E0054920462FF051F903B0AE
:1020800030BD00BF0D18040882130408881304082B
:10209000FFF7DCBF7047C36A0133C3627047034672
:1020A00010B103C983E803007047704703684068B4
:1020B00018470000D0ED056ADFED107AC0ED066A22
:1020C00091ED007A90ED026A80ED057AF0EE675AA4
:1020D000E7EE065A90ED036AB0EE657AA6EE267A30
:1020E000D0ED046A90ED016AE6EE267A77EE677A23
:1020F000C0ED047A17EE900A704700BF00000000A0
:10210000034610B107C983E807007047704742686B
:102110000368806812F0010F4FEA620218BF81580D
:10212000104418BFCB58184710B5034B0360044642
:10213000FFF768FA204610BD6817040810B504467A
:10214000FFF7F2FF20462C2104F0BCFA204610BD18
:1021500037B5144602AA0023054642F8043D084656
:1021600009492FF003F9012808D1019B0749002BE9
:10217000D4BF0023012385F8283000E0044920461D
:102180002FF0CEF803B030BD0D18040882130408F8
:102190008813040873B5044616460D4601B9BAB94A
:1021A000731B0F2B019307D9002201A9204615F0BC
:1021B00029FB019B2060A36032462946206815F068
:1021C00073FB019B226863600021D15402B070BD93
:1021D000014805F09FF800BF0C15040870B590F891
:1021E00028309CB004460BB3114903A82FF098F88F
:1021F00004F10C0504F1200655F8040FFFF7B4FDB7
:102200003DF00AF903AACDE900010A4910462FF072
:1022100087F8B542F0D103AA074910462FF080F89D
:10222000606A064903AABC3003F036FE1CB070BDDC
:10223000A0170408A7170408B0170408B617040865
:1022400038B5142204460D4600212EF011FC20461C
:10225000294604F041F8204638BD38B5054600242B
:10226000AB689C4207D26B6853F8240003689B68F4
:1022700098470134F4E738BDC36810B504460BB184
:102280009B689847204610BD38B5094B036090F80D
:1022900030300446051D2BB1002380F8303028462D
:1022A00003F06AFF2846FFF7DBF8204638BD00BF81
:1022B0002417040810B50446FFF7E6FF2046342132
:1022C00004F000FA204610BD38B50B4B0B4D044608
:1022D00040F8783B15F0BCFA204640F8505FFFF715
:1022E000BFF8204640F8285FFFF7BAF82046FFF70E
:1022F00089F9204638BD00BF501704086022040841
:1023000010B50446FFF7E0FF2046902104F0DAF90B
:10231000204610BD70B506460B4B46F8983B044668
:1023200046B100F1B805B54204D0103D2846FEF78D
:10233000A5FCF8E704F13800FFF79EFF04F1280040
:10234000FFF79AFF204670BD3022040810B50446FE
:10235000FFF7E0FF2046BC2104F0B4F9204610BD91
:1023600010B5094B036003F120025C330446C0F84A
:10237000BC20C0F8C030BC3003F056FD2046FFF74B
:10238000C9FF204610BD00BF70210408A0F1BC00A9
:10239000E6E7A0F1C000E3E730B52DED028B85B094
:1023A0000546684608EE102AFFF776F8DFED0D7A4D
:1023B00005F1180428EE278A2046BCEEC88AFEF7ED
:1023C0005DFC1CB169462046FFF766F818EE101A4E
:1023D000284603F0BDFE6846FEF750FC05B0BDEC94
:1023E000028B30BD002474497FB51C4C1C4D1D4E22
:1023F00020464FF4E121BC3403F09CFD1A492046ED
:1024000003F04AFD2946204603F046FD31462046AA
:1024100003F042FD1549204603F03EFD31462046BB
:1024200003F03AFD2946204603F036FD10492046C8
:1024300003F032FD0F480190012380F830300E4B3D
:1024400000930E4A0E4B039369460430FFF7A4FF36
:102450006846FEF713FC002004B070BD7C0F00201E
:10246000BE170408D2170408B9170408E6170408B1
:10247000BB170408F40D00209720000817B7D138C7
:102480000014040810B5FFF7AFFF044618B905485B
:10249000FFF7E3FEFBE702460349044803F0FCFCB8
:1024A000204610BD0C0F0020FA1704083810002039
:1024B00030B5002585B0044680F824500069FFF748
:1024C0002BFC084B084A02948DE828006946074B0C
:1024D000039304F12800FFF75FFF6846FEF7CEFB89
:1024E00005B030BDF12400088FC2F53C1017040878
:1024F0001FB590F8243000EB830304461869FFF7FA
:1025000037FC94F8243004EB83031869FFF718FCB8
:1025100094F8252094F82430013A934218D00133DE
:10252000DBB284F8243004EB83031869FFF7F4FB73
:10253000084B00930023019304F12800064B074A3F
:10254000029469460393FFF727FF6846FEF796FB60
:1025500004B010BDF1240008101704088FC2F53C28
:10256000C36810B504460BB19B689847204610BD60
:1025700000F1080370B50446164603600D4621B10C
:10258000084630F05DF92A1801E04FF0FF32294685
:102590002046FFF7FFFD314604F11800FEF7B3FCBB
:1025A000204670BDF8B50446084B094E44F8043B7C
:1025B00005460F463046FFF779F93946204600F0C8
:1025C0000FFE3046FFF772F92846F8BDE8150408FB
:1025D000A41B0020D1E90023C0E90023D1E9022394
:1025E000C0E90223704710B5D1E900230446D1E9C0
:1025F00002013DF08FF8C4E9040110BD2DE9F04F50
:102600009DB00BAB01930AAB00930546924608467A
:1026100009AB08AA48492EF0A9FE042840F085809D
:1026200009983CF0F9FE80460A9889463CF0F4FE91
:1026300006460B980F463CF0EFFECDE906010898E0
:102640003CF0EAFEC5E90201286F3CF0E5FE424697
:102650004B463CF035FF05F11008CDE90C01CDE902
:102660000E010CA94046FFF7B5FF344B0FCB0DF11F
:10267000400E18AC8EE80F0084E80F00714640460B
:10268000FFF7B1FF32463B46304639463CF066FD27
:102690000022CDE914014FF04043304639463CF06A
:1026A0000FFF05F1400BCDE9160114A95846FFF7BD
:1026B00091FFDDE90623104619463CF04FFD064622
:1026C000286F0F463CF0A8FE8046894602460B461E
:1026D000304639463CF042FD32463B46CDE91801D2
:1026E000404649463CF038FDCDE91A01214658469E
:1026F000FFF779FF08983CF08FFE04460B980D46D3
:102700003CF08AFECDE904010A983CF085FECDE953
:10271000020109983CF080FE2246CDE900012B46DB
:10272000074950462EF0FCFD03E0064950462EF0C6
:10273000F7FD1DB0BDE8F08F1018040888170408D5
:102740001D1804088813040808B5FFF757FF08BDD3
:1027500008B180E80600014BC36070477817040891
:1027600010B581680446FEF797FB204610BD002295
:102770000023C0E900237047D0B500260027044697
:10278000C0E90267E0E80467FFF7F1FFC4E9066704
:10279000C4E90867C4E90A672046D0BD08B515F04A
:1027A000CFFBC00F08BD2DE9F0418D6804460F46F0
:1027B00090460E1D01205DB105F110014046FFF766
:1027C000EDFF18B1AB682E461D46F4E7EB68FAE75B
:1027D00048B1FB689E4201D125600DE0304603F010
:1027E00093FF054600E03546414605F11000FFF72E
:1027F000D5FF18B100232360666001E025606060AA
:102800002046BDE8F08138B538200D4601F022FCA5
:102810000446103008D0294615F0D0FB05F1180108
:1028200004F12800FEF76FFB204638BD2DE9F74381
:1028300004460D4691464D4530D0636933B1266953
:10284000294606F11000FFF7A9FF18BB2A462146CA
:102850006846FFF7A8FF9DE84800CEB1271D43B9A1
:10286000B74206D006F110012846FFF797FF8046D1
:1028700001E04FF0010829462046FFF7C4FF3B4620
:1028800001463246404603F041FF6369013363610C
:102890002835D0E7002EFBD0271DE1E703B0BDE8C7
:1028A000F0830000000000002DE9F04F2DED028BB9
:1028B000C948CA4CCA4F9FEDCB8ADFF8A083ADF55B
:1028C0000B7D04F0E9F9C84AC849C34801F070FB20
:1028D0004FF416530093032200230221C44803F04F
:1028E0002BFAC14AC349C248002601F061FB1523F7
:1028F0008DE8480013220A232721BF48FDF7B2FCC8
:10290000B94ABE49BC4801F053FB2046BC4B40F8D5
:10291000043B03F071FCBB4B6360A662E66284F883
:1029200030602046B04AB84930AC01F041FB0DF1AF
:10293000C80A05212046FFF783FC9AE807008DE8C6
:10294000070041F2883194E80C00B048FFF758F8CE
:10295000A54AAF49AD4801F02BFBA54AAD49AE48A9
:10296000FFF7EEF8A04AAD49AB4801F021FB07F1B3
:10297000100393E80300AA4BAA4A1A60AA4A5A60B5
:1029800003F1080282E8030000221A615A619A6189
:10299000A64AD2ED007AB0EE677ACDED047AC7EEA2
:1029A000087A2AAD85E8030084E803000193162322
:1029B00000939F48142317EE102AFCEEE77A0DF5DA
:1029C0000A7B17EE901AFFF75DF9874A99499848F4
:1029D00001F0EEFA954BD3F8009048463CF01CFD10
:1029E000954BC8F8003072A3D3E90023CDE9040168
:1029F00008F11000C8E90223FFF7BEFE08F140000D
:102A0000FFF7BAFEC8F870906BA3D3E90023DDE9A5
:102A100004013CF055FD6BE96801CBE9020108F1C6
:102A200010005946FFF7D6FD97E80F0026AF84E85F
:102A30000F0087E80F0008F110003946FFF7D3FDBB
:102A40005FA3D3E90023C5E900235FA3D3E90023F3
:102A50002946C5E9022308F14000FFF7BBFD5CA34E
:102A6000D3E90023DDE904013CF078FB58A3D3E966
:102A70000023C4E90001DDE904013CF06DFBC4E979
:102A8000020108F140002146FFF7ADFD6B4BDFF876
:102A9000D091181D282231462DF0EAFF524A68498C
:102AA000664801F085FA01212846FFF77BFD0621E3
:102AB0002046FFF7C5FB9AE807008DE80700294686
:102AC00094E80C005F48FFF707F9474A5E495D4804
:102AD00001F06EFA10212846FFF764FD0921204617
:102AE000FFF7AEFB9AE807008DE80700294694E857
:102AF0000C005648FFF7F0F83B4A5349534801F0A1
:102B000057FA21212846FFF74DFD14212046FFF7F3
:102B100097FB9AE807008DE80700294694E80C0027
:102B20004B48FFF7D9F8304A4749494801F040FA85
:102B300020212846FFF736FD1A212046FFF780FBAB
:102B40009AE807008DE80700294694E80C00414800
:102B5000FFF7C2F8244A3C493E4801F029FA072110
:102B60002846FFF71FFD08212046FFF769FB9AE87A
:102B700007008DE80700DFF8ECA094E80C00294678
:102B80004846FFF7A9F8184A2F49484601F010FABD
:102B90004FF4FA615046FEF72BFDD646DFF8C8C069
:102BA0002D4B4EF8103BBCE80F005FE0AFF3008008
:102BB000ED0DBE30992AEF3F64CC5D4BC8870840CD
:102BC000A2258FA7E507B63FA2258FA7E507B6BFC9
:102BD000A49E4F2ED7EC723FB8120020F40D0020B7
:102BE0008817040817B7D13898010020B56C000881
:102BF0007C0F002061230008540E00208D02000885
:102C0000241704084822040889220008941200208E
:102C100091190008A0860100400E0020191B000831
:102C2000F00E00203417040891CF3ABFCC010020E9
:102C3000C80C0020A91C000840170408380D00200B
:102C400095200008E0110020151D00080412002046
:102C5000281200204C120020501704086811002090
:102C600070120020640D0020D0010020AEE80F009B
:102C7000DCF80030CEF80030282205230AEB0200F1
:102C800031468AF825308AF824602DF0F1FE0AF1E9
:102C9000280003F0B1FAAF4BCAF828302822314699
:102CA000CAF84C600AF1500004932DF0E1FE0AF1DD
:102CB000500003F0A1FA5046049BA74ACAF85030CE
:102CC0000AF1800340F8783F911FCAF87460FFF75B
:102CD00061FAA24AA249504601F06AF9A14BCDF827
:102CE00004900093A04AA14BA149A248DFF824A375
:102CF000FFF7EAF8994AA0499E4801F059F9DFF830
:102D000018E3BEE80F00A946A9E80F00DEF800307E
:102D1000C9F800304FF4FA715046FEF769FCD64608
:102D2000964B4EF8103B0FCDAEE80F00944DD9F8FE
:102D30000030CEF80030894A924B9349CAF82430CB
:102D400050468AF8286001F033F942468F492846F8
:102D5000FEF77EFE8E4B8B4AD3ED007A854BCDED90
:102D6000017A87EE887A02938A4B039500938A480A
:102D70008A4BFCEEC77A17EE901AFEF7C9FA774A2B
:102D80008749854801F014F97E4B00937F4A8548B6
:102D90002B464FF47A71FFF747F9704A8249814810
:102DA000824D01F005F97C4A81493846FFF7D0FC95
:102DB0003A4680492046FFF7DBFB774A7E49584672
:102DC000FFF7C6FC5A467D493AA8FFF7D1FB724A85
:102DD0007B491EA8FFF7BCFC1EAA7A4944A8FFF74E
:102DE000C7FB6D4A78491AA8FFF7B2FC1AAA7749BF
:102DF0004EA8FFF7BDFB674A754916A8FFF7A8FC68
:102E000016AA744958A8FFF7B3FB5A4A724912A888
:102E1000FFF79EFC12AA714962A8FFF7A9FB424680
:102E20006F490EA8FFF794FC0EAA6E496CA8FFF735
:102E30009FFB52466C490AA8FFF78AFC0AAA6B4915
:102E400076A8FFF795FB574A694906A8FFF780FC6B
:102E500005F1040806AA674980A8FFF789FB10223C
:102E6000314640462DF004FE6E61C5F80C80C5F871
:102E7000108028468AAA2146FFF7D8FC80AD05F1CC
:102E80001800FFF76DFB2846283D14F0E1FCAF4227
:102E9000F5D106A8FFF764FB0AA8FFF761FB0EA8AF
:102EA000FFF75EFB12A8FFF75BFB16A8FFF758FBC6
:102EB0001AA8FFF755FB1EA8FFF752FB3B4D5846DB
:102EC000FFF74EFB3846FFF74BFB31AE234A4A492A
:102ED000284601F06DF80021102230462DF0C8FD83
:102EE000A968E66000236361266199B13B463246DA
:102EF00020463C60FEF712F8A06003469A680AB1CB
:102F00001346FBE7E360C3680BB11846FBE76B6948
:102F10002061636122461B493848FEF74FF8A168DB
:102F20002046FDF7B9FF0D4A3549344801F040F815
:102F3000344B354935480722FEF780FB074A3449B0
:102F4000324801F035F80DF50B7DBDEC028BBDE884
:102F5000F08F00BF60220408411804089801002087
:102F6000C92200084C120020041200202812002060
:102F7000E011002054100020E51E00086817040826
:102F8000400F00207C0F002029210008C80C0020E1
:102F9000CC010020380D002074100020540E0020B9
:102FA00075150008600F0020D51F0008280E0020AE
:102FB000C51300084218040815140008471804082F
:102FC0004D1500084C1804085D1400085118040839
:102FD000C903000856180408D11F00085B1804082C
:102FE00049270008601804085121000865180408E2
:102FF000912000086A18040861270008BC1200200C
:10300000CD0E000817B7D1389C0100200C0F00200E
:1030100009160008C40E0020B801002010B50446AF
:10302000FFF79EF92046D82103F04CFB204610BD47
:10303000A0F1BC00F2E7A0F1C000EFE72DE9D0431A
:10304000D0E90667C0E90867D1E900230446C0E972
:103050000623D0E900013CF033FA002200233CF0C3
:103060007DF8D4E9022380468946304639463CF053
:1030700027FA42464B463CF071F8D4E90423064651
:103080000F46D4E90A013CF01BFA002200233CF071
:1030900065F802460B46304639463CF05DF8C4E917
:1030A0000A01BDE8D083F8B5D1E9002304460D46F6
:1030B000D0E902013CF004FA06460F4604F1100084
:1030C0002946FFF7BBFF02460B46304639463CF027
:1030D00045F806460F4604F140002946FFF7AEFFCB
:1030E00002460B46304639463CF038F8F8BD13B579
:1030F000002200230446C0E90623C0E908236846ED
:10310000FFF735FBDDE90023C4E90A2302B010BD57
:1031100010B504461030FFF7EAFF04F14000FFF756
:10312000E6FF10BDFFF7C0BB1FB50446102268467E
:1031300000212DF09DFC284B22681A60A279012302
:1031400001930293122A43D8DFE802F02C2B0A0CD9
:103150000E10121416181A1C1E20222426282A00CB
:1031600002231EE003231CE004231AE0052318E0D9
:10317000062316E0072314E0082312E0092310E0D9
:103180000A230EE00B230CE00C230AE00D2308E0D9
:103190000E2306E00F2304E0102302E0112300E0D9
:1031A000122300930D4A0C48536823F440036946E8
:1031B000536001F075FB084801F0BEFA06480A2189
:1031C00001F01AFB20B9044801F066FB80B200E070
:1031D000002004B010BD00BF4C320020002301408D
:1031E00073B505460C460846264903F0B5F8286035
:1031F000013004D124482549362203F053F92046F2
:10320000204903F0C5F8431C064604D120481F4955
:103210003A2203F047F9C6F3C426EF2CAE7103DC63
:103220002046184903F05CF829681A4BAC80994293
:103230000FD11948036813BB0193184B5A6C42F421
:1032400080725A645B6C03F480730193019B0123C9
:10325000036013480023012201604360836003611F
:10326000836103624362C3628362C360C2610363BA
:10327000436101F0B7F910B10A4803F075F902B0E3
:1032800070BD00BF681A0408581B0408701B0408AE
:10329000CB1B0408002001400C160020003802401F
:1032A0004C320020E41B040808B5FFF73DFF07EE91
:1032B000900AB8EE677ADFED037A67EE277A17EEA9
:1032C000900A08BD0108803910B50C4CA268A468AA
:1032D000B4F1006F13460CD1131F094A53F8044F81
:1032E00042F8044F074CA242F8D1044A4FF0005371
:1032F0009360103043F8201010BD00BF00ED00E0D7
:10330000FCFFFF1F90010020431C10B5044604D1B0
:1033100006480749262203F0C5F82046002100F0A0
:10332000E3FA04F00F040120A04010BD3316040896
:10333000FB1B040870B504464B1C0E4621800ED0C2
:10334000C1F3031000F060FA05463046FFF7DCFFDA
:1033500005F1100318356060A360E560256170BD5C
:10336000B0F9000000F0EEBA38B5B0F90030013322
:1033700005460C4604D107480749492203F092F854
:10338000012CB5F900000CBF21460021BDE83840F2
:1033900000F0AABA2E160408FB1B04082DE9F04120
:1033A000154E4C2404FB006407468846043400256F
:1033B00045451ED04C237B430121F35801FA05F209
:1033C0001A4213D00D4A236B5069D4F818E001FA61
:1033D00003F303420AD05361206838B1DEF81020AD
:1033E0001342074B08BF02211B689847013504347C
:1033F000DEE7BDE8F08100BF10160020003C014070
:103400002418002000200121FFF7C8BF0120014639
:10341000FFF7C4BF02200121FFF7C0BF0320012135
:10342000FFF7BCBF04200121FFF7B8BF052001460C
:10343000FFF7B4BF06200146FFF7B0BF2DE9F74FF5
:103440009B464B1C81460D46019266D001F00F0849
:1034500008F1FF33C1F303100E2B09D8DFE803F0A6
:103460000C1014181C1C1C1C1C20202020202000C8
:103470002C4F0024062616E02B4F0124072612E0CD
:103480002A4F022408260EE0294F032409260AE0C9
:10349000284F04240A2606E0274F0524172602E0B9
:1034A000264F0624282600F0AFF94FFA86FA00903E
:1034B0000721284600F018FA50463946FFF704FF66
:1034C00006F01F01012202FA01F04FEA5A131C49CB
:1034D00041F823001B4B89F8006053F828601A4913
:1034E000A9F80C504C23634302FA06F5CA58C9F8F0
:1034F00004402A430020C9F80800CA50132303FBE4
:10350000046401EB8403009ADA61C3F804B0C3F8E1
:1035100034800E4B019A1A6000E0084603B0BDE803
:10352000F08F00BF053400080D3400081534000882
:103530001D340008253400082D34000835340008F7
:1035400000E100E0441C04081016002024180020AC
:10355000F8B54468174A0546808900F00F03C0F3A8
:10356000031000F580100126803006FA03F1800276
:1035700052F8237001F0F8FA4C210F4AB5F90C000B
:103580006143BE40535823EA0606132303FB04732A
:10359000565002EB830100244C60991D0C3302EB62
:1035A000810102EB83034C605C60214600F0EEF980
:1035B000AC60F8BD441C040810160020A2B101291B
:1035C00005D18368023B012B08D981601EE00229E6
:1035D00021D1836823F00203012B03D103238360ED
:1035E000082119E0816007E0012907D18368023BC7
:1035F000012B0DD80223836007210DE002290AD197
:10360000836823F00203012B02D18360062103E0CB
:103610008260114600E00C21B0F90C0000F0B6B950
:1036200038B5144B1A68116911F0020F1C4607D007
:10363000D368980704D56FF00203136102F0BCFE53
:1036400023681A69510714D5DA68520711D56FF04B
:103650000402094D1A615C6A2B68E31AB3F57A7F9C
:1036600007D300F0AFFF034B1B6804F57A729A632F
:103670002C6038BDE43200202818002030B589B015
:1036800003A801A901F078FD01F046FD0023029393
:10369000234B01901A6C234C42F008021A641A6CF6
:1036A00002F008020292029A1A6A42F008021A62B2
:1036B0001A6A22F008021A62069AA3F50B332360F5
:1036C0004FF0FF33E360184B02B14000B0FBF3F062
:1036D00001380025606013482561A560656101F02F
:1036E0002DFE32201149FFF7EFFD114B0D484FF42D
:1036F00080225A60294601F0F1FE0421094801F0B8
:10370000EDFE23680B4A596A1160126802F57A725D
:103710009A63DA68284642F00402DA6009B030BDE4
:1037200000380240E432002040420F0021360008F9
:1037300000E100E0281800207FB502F0CDFE01A8CE
:10374000052102F0C9FDBDF90430013304D10E4852
:103750000E493A2202F0A6FE049B029A1A609620B5
:1037600002F018FFBDF90430013304D106480749BF
:103770003A2202F097FE029B059A1B0413609620E2
:1037800002F008FFDFE700BF2E160408841C0408BF
:1037900030B50546A1B00C4602F09EFE29466846AB
:1037A000224634F00DFC051E03DC02F0BFFE21B002
:1037B00030BD094B1B6823B908480221032200F0E1
:1037C0008FFD00241DF804100448013400F0B4FEFD
:1037D000AC42F7D1E9E700BF781B0020943200200B
:1037E0000FB407B504A951F8040B0191FFF7D0FFFE
:1037F00003B05DF804EB04B0704708B502F004F8BC
:10380000BDE8084000F0C6BE7FB50023072853D8A6
:10381000DFE800F004111E2B3852524500932A4B6A
:103820002A481A6B42F001021A631B6B03F0010372
:103830000093009B44E00193234B25481A6B42F010
:1038400002021A631B6B03F002030193019B37E032
:1038500002931D4B1F481A6B42F004021A631B6B44
:1038600003F004030293029B2AE00393164B1A48C9
:103870001A6B42F008021A631B6B03F008030393F0
:10388000039B1DE00493104B14481A6B42F0100286
:103890001A631B6B03F010030493049B10E0059361
:1038A000094B0F481A6B42F080021A631B6B03F03E
:1038B00080030593059B03E00A4802F055FE0020B3
:1038C00007B05DF804FB00BF003802400000024072
:1038D0000004024000080240000C024000100240B8
:1038E000001C0240E71C040830B5431C87B00546A5
:1038F0000C4604D110481149812202F0D3FDC5F3D2
:103900000310FFF781FF05F00F050123AB4004F022
:103910000F0201930A4B53F822300293C4F30213AF
:103920000393C4F3C314032301A90493059401F082
:1039300049F807B030BD00BF33160408081D04085D
:10394000601D0408431C70B506460C4604D10D48A2
:103950000D49A62202F0A6FDC6F30310FFF754FF9F
:1039600006F00F05C1686B0003229A4021EA0202AB
:10397000032CC260C26828BF00249C401443C4606A
:1039800070BD00BF33160408081D040838B505468D
:10399000C0F303100C46FFF737FF05F00F02C368B2
:1039A0005200D34003F0030304F00F01284641EA1C
:1039B0000311BDE83840FFF797BF000030B507EEB0
:1039C000101A284B02681A60B5EEC07AF1EE10FAB0
:1039D00089B0054609D4F7EE007AB4EE677AF1EEC5
:1039E00010FAC8BFB0EE677A01E09FED1F7AD5EDFF
:1039F000037AF8EE677A602267EE877A0192FCEE2E
:103A0000E77AAA68C5ED047A17EE903AB3FBF2F3B1
:103A100002930023039304930593069307932B7D4E
:103A2000013B032B1CD8DFE803F008020406042442
:103A300004E0082402E00C2400E00024094801A965
:103A4000224601F0DBFC10B1084802F08DFD6B7DD1
:103A50000448214613B101F079FD01E001F054FD65
:103A600009B030BD2C18002000000000941D04088F
:103A7000C368ABB190ED047A07EE903AB8EE477A9E
:103A8000F8EE677AC7EE277AB7EE007AF4EEC77AD7
:103A9000F1EE10FAD4BF17EE900A17EE100A704735
:103AA000002070472DE9F041D0F80080414C86B0ED
:103AB00005460E46C4F80080FFF7DAFFD8F820204C
:103AC00041F21113134007465BB9D8F8202040F2A9
:103AD000444313402BB9D8F8003023F00103C8F851
:103AE000003001A8694601F047FB2B68324A934237
:103AF0001BD00BD8A2F50062934216D002F580626B
:103B0000934212D0B3F1804F51D10EE02B4A934231
:103B100010D002D8A2F5804204E0294A934209D08D
:103B200002F58062934205D041E001F0F5FA009081
:103B3000049803E001F008FB00900598009A2149E1
:103B4000B6F5803FACBF4FF4FA730123AB60AB68AE
:103B500000B15200B2FBF1F212FB03F39BB2013B46
:103B600063606368B3F5803F02D3174802F0FCFC42
:103B7000AA68731EB3FBF2F3B3F5803FE36002D390
:103B8000124802F0F1FC00230A482361A36001F00F
:103B9000EFFB10B10E4802F0E7FCEE602846394614
:103BA000FFF70CFF2268136843F00103136006B0AF
:103BB000BDE8F0812C180020000C004000400140BE
:103BC0000044014040420F00AB1D0408C71D04081B
:103BD000941D040870B5044688B008460E46554941
:103BE00002F0BAFB2060013004D1534853492D2222
:103BF00002F058FC30464F4902F0CAFB431C054610
:103C000004D14F484D49312202F04CFCC5F3C42386
:103C10004C4A23752368C5F30045934265754FF000
:103C200000020BD10092484A516C41F001015164ED
:103C3000526C02F001020092009A3BE0B3F1804F17
:103C40000BD10192404A116C41F001011164126CD8
:103C500002F001020192019A2CE03C498B420BD107
:103C60000292394A116C41F002011164126C02F0A7
:103C700002020292029A2DE035498B420BD1039247
:103C8000314A116C41F004011164126C02F004021B
:103C90000392039A2EE02F498B420BD12A4B0492B8
:103CA0001A6C42F008021A641B6C03F008030493B8
:103CB000049B2EE0284A93420CD100230593224B0B
:103CC0005A6C42F480325A645B6C03F4803305937F
:103CD000059B1EE0214A93420CD1002306931A4B08
:103CE0005A6C42F400325A645B6C03F4003306935E
:103CF000069B0EE01A4A93420BD100230793124B06
:103D00005A6C42F480225A645B6C03F4802307935C
:103D1000079B0849304602F0E3FA0023E360236181
:103D20000123A680A360204644F62061FFF7BAFE77
:103D300008B070BDB8180408E01D0408F81D040898
:103D4000CB1B040800000140003802400004004082
:103D500000080040000C00400040014000440140C9
:103D6000004801404FF47A735943FFF79BBE7047F8
:103D70007047036870B504465B6A9847236820461D
:103D80001B69002101229847431C0646236804D181
:103D900020469B6A9847304670BD1B69204600212B
:103DA0000222984723680546314600221B692046B7
:103DB0009847236820469B6A9847284670BD0000B4
:103DC00008B5084B1B685BB907480221032200F0C5
:103DD00087FA05484FF41651BDE8084000F02ABBA9
:103DE00008BD00BF781B00209432002002284FF04D
:103DF000000309DDC21E074951F8220041F82230B4
:103E000020B103685B681847184670474FF0FF30D1
:103E1000704700BF74180020022870B50C46154684
:103E20000FDC0E4B1B680BB9FFF7CAFF6619B442D3
:103E300005D00B4814F8011B00F07EFBF7E728467D
:103E400070BD0338074B53F8200020B10368BDE86C
:103E500070401B6818474FF0FF3070BD781B002082
:103E60009432002074180020022810B50C460ADC99
:103E70000B4B1B680BB9FFF7A3FF0A4800F040FB90
:103E80002070012010BD0338074B53F8200020B1EB
:103E90000368BDE810409B6818474FF0FF3010BD25
:103EA000781B00209432002074180020022807DDBF
:103EB0000338064B53F8200020B10368DB6818472D
:103EC000012070474FF0FF30704700BF741800208A
:103ED000022807DD0338064B53F8200020B10368A1
:103EE0001B691847002070474FF0FF30704700BF34
:103EF00074180020022808B504D84FF400534B6012
:103F0000002008BD2AF0C6FE092303604FF0FF30F1
:103F100008BD0000014802F027BB00BF601E040876
:103F200008B5012000F046F8704708B5FFF765FCBA
:103F3000FFF7FAFF08BD704708B5FFF7FCFFBDE8C3
:103F40000840FEF79FBA00000C4A136810B51844E9
:103F5000EFF30881884205D3094B0C221A604FF019
:103F6000FF3010BD0749096821B1074C246821447E
:103F70008842F1D21060184610BD00BFE401002055
:103F8000203300207018002074190020074C08B559
:103F90002368054698682AF087FF2368D8682AF0C6
:103FA00083FF0DB1FFF7C8FBFEE700BFA8060020A6
:103FB0000120704708B5FFF7E9FF01207047002195
:103FC0002DF0B4B82AF082BF704770477047704731
:103FD00008B5FFF7F9FF08BD08B5FFF7F6FF08BD04
:103FE00008B5FFF7F3FF08BD08B5FFF7F0FF08BD00
:103FF00010B5037803F00303012B04460CD02BB15A
:104000000648074940F2213202F04CFA237843F087
:1040100002032370012010BD002010BD6A1E040899
:10402000901E040810B5037803F00303022B044626
:1040300005D00648064940F2293202F033FA2378C7
:1040400023F0030343F00103237010BDD01E0408C6
:10405000901E040810B52CF04DF8044610B9024823
:1040600002F082FA204610BD0F1F040810B52CF094
:1040700041F8044610B9024802F076FA204610BD15
:104080002C1F040808B12CF03DB8704708B12CF083
:1040900039B870470B4B10B5036004460A48FDF76A
:1040A00005FC0023094A52F82310A14204BF002155
:1040B00042F823100133402BF4D10348FDF7F6FBFF
:1040C000204610BDB01F0408681800207418002096
:1040D0002DE9F3418846364905462DF0C5F90446D9
:1040E00010B9FFF76DFE5EE0284632492DF0BCF9AD
:1040F00018B9FFF765FE012455E028462E492DF03A
:10410000B3F918B9FFF75CFE02244CE02B48FDF729
:10411000CDFB00242A4E56F82430374633B1013403
:10412000402CF7D12548FDF7C1FB3AE04FF0FF33B3
:10413000224846F82430FDF7B9FB2B783A2B06D1FC
:10414000284620496A462DF011F9009824E0684677
:10415000294601F0B3FC684601F0F2FC10B946F8BC
:1041600024001EE0684601F0D9FC18B1684601F051
:10417000DEFC11E0684601F0CAFC054610B946F8BD
:1041800024000EE0036868469E6801F0B5FC28F440
:10419000803201462846B04747F8240008B103346E
:1041A00001E04FF0FF34204602B0BDE8F08100BFCF
:1041B000511E04089C1F0408581E0408681800209B
:1041C00074180020981F04084309203300F01F00D2
:1041D00004490122824041F82320BFF34F8FBFF3EF
:1041E0006F8F704700E100E0426818490346920172
:1041F00010B588181C688C509A6842600246D968CD
:1042000042F8081F196951605969916000F1100165
:104210001A6A8A600022C261C2848284C285828551
:10422000B3F91A20013201D1082305E0B3F918309F
:1042300001330CBF04230C234B6001F0B6FA20B10C
:104240000348BDE8104002F08FB910BD7819002076
:10425000DC1F04081A4BF7B5074653F820001E462A
:1042600000282BD0174CBD0163591A6852060AD595
:10427000DB68590607D5144B01211B689847635921
:104280006FF040021A6063591A6892060DD5DB6818
:1042900098060AD50C4B56F827001B680021984752
:1042A000084B5B596FF020021A6063591A681107B6
:1042B00004D55A69D20744BF5B68019303B0F0BDCF
:1042C0007C1B0020781900209C1B00200020FFF799
:1042D000C1BF0120FFF7BEBF0520FFF7BBBF000035
:1042E000F0B5044685B008460E464949154602F029
:1042F00033F848490746284602F02EF8014638466A
:1043000002F00CF82060013004D143484349662292
:1043100002F0C8F82368424A93421DD002F5806239
:1043200093422FD0A2F55042934241D13D4B1A6A9D
:1043300042F400321A621A6A22F400321A6200222F
:1043400002921A6C42F400321A641B6C03F40033BC
:104350000293029B01232AE0324B5A6A42F0100278
:104360005A625A6A002122F010025A6201915A6C74
:1043700042F010025A645B6C616003F01003019319
:10438000019B15E0274B5A6A42F020025A625A6A92
:1043900022F020025A62002203925A6C42F020025C
:1043A0005A645B6C03F020030393039B0523636053
:1043B0003046174901F094FF2846164901F090FF56
:1043C000721C03D030460121FFF7BCFA6B1C03D0EE
:1043D00028460121FFF7B6FA4FF41653A3600023D5
:1043E000E360236163612362268365832046FFF7D0
:1043F000FBFE22680C4B9A4207D10C4B0C48012261
:104400001A6021464C222CF035FA05B0F0BD00BFF1
:10441000201A040870180408F41F04081020040867
:10442000001001400038024000440040781B00208A
:10443000943200208160FFF7D7BE0000034B196063
:104440004168034B43F82120704700BF9C1B0020AC
:104450007C1B002038B54368012B0D4605D0052B89
:1044600006D043B91C49252407E01C49262404E052
:104470001B49472401E000210C461A489B01AAB1C0
:10448000C258D36815B943F0200301E043F040035C
:1044900065B2D3602846FEF717FF6D0904F00704E4
:1044A0000123114AA34042F8253038BDC358DA68C9
:1044B00035B922F02002DA60DB681A0606D538BD6D
:1044C00022F04002DA60DB689B0604D42046BDE897
:1044D0003840FFF779BE38BDCD420008D34200080E
:1044E000D94200087819002000E100E04368034A3F
:1044F0009B01D3581868C0F340107047781900200A
:1045000038B5446805462846FFF7F0FF0028FAD082
:10451000A401034B1B595868C0F3080038BD00BF05
:10452000781900204368034A9B01D3581868C0F3E8
:10453000C01070477819002070B5456806460C46D3
:104540003046FFF7EFFF0028FAD0AD01024B5B5970
:10455000C4F308045C6070BD78190020DFF820D037
:10456000002103E0074B5B58435004310648074BDA
:1045700042189A42F6D301F021FAFBF739FE704750
:1045800000800120DCA2040898010020A40C002077
:10459000FEE7000008B50A4B1A6842F400721A6080
:1045A0001A6842F480621A601A6842F480721A60D3
:1045B0000F20FFF763F800F003FA002008BD00BFEA
:1045C000003C0240024A136801331360704700BF89
:1045D000E0320020014B1868704700BFE032002035
:1045E0007047000010B50446002800F09E80036C60
:1045F00023B9436480F83C30FFF7F2FF236CDB06FD
:1046000000F18E80236C23F4885323F0020343F0DF
:1046100002032364464B5A6822F440325A605968B8
:1046200062680A435A60236821695A6822F48072DA
:104630005A605A6842EA01225A605A6822F040726F
:104640005A605968A2680A435A609A6822F4006264
:104650009A609968E2680A439A603649A26A8A4277
:104660000ED0996821F07061996099680A439A6048
:104670009A6822F040529A609968E26A0A4306E01A
:104680009A6822F070629A609A6822F040529A60AA
:104690009A68A16922F002029A609A6842EA41028D
:1046A0009A60226A9AB15A6842F400625A605A6863
:1046B00022F460425A604FF4604191FAA1F1626ABB
:1046C0005868B1FA81F1013A8A40024302E05A681F
:1046D00022F400625A60DA6A22F47002DA62E26955
:1046E000D96A013A41EA0252DA629A68216B22F4ED
:1046F00000729A609A6842EA41229A609A686169F7
:1047000022F480629A609A68002042EA81229A60CC
:104710006064236C23F0030343F00103236400E08F
:104720000120002384F83C3010BD012010BD00BFE3
:10473000002301400100000F82B00023019390F894
:104740003C30012B4DD0012380F83C3003689A683F
:10475000D10703D59A68D20712D437E09A68224964
:1047600042F001029A60214A1268B2FBF1F202EBB8
:1047700042020192019A002AECD0019A013AF8E72C
:10478000026C22F4E06222F0010242F480720264C0
:104790005A68510541BF026C22F4405242F48052E3
:1047A0000264026C12F480521CBF426C22F00602BA
:1047B0004264002280F83C206FF022021A600C4A0A
:1047C0005268D20604D00B4A934201D0002009E07F
:1047D000986810F04050F9D19A6842F080429A608F
:1047E00000E0022002B0704740420F00E8010020C4
:1047F000002301400020014003689A6870B5560507
:1048000004460D460BD59B68D80508D5236C43F0AC
:1048100020032364002384F83C30012070BDFFF79F
:10482000D9FE064623681A68920711D4691CFAD08B
:1048300045B9236C43F004032364002384F83C301F
:10484000032070BDFFF7C6FE801BA842EAD9F0E73F
:104850006FF012021A60226C42F4007222649A68AD
:1048600012F0405F01D0002070BDA269002AFAD189
:10487000DA6A12F4700F02D09B685B05F3D4236CE4
:1048800023F480732364206C10F48050EBD1236CEC
:1048900043F00103236470BD0368D86C70470000C7
:1048A000F7B50023019390F83C30012B63D00D68DD
:1048B0008A680123092D80F83C30ACB203680FD917
:1048C00004EB4406DF681E3E4FF0070E0EFA06FEAC
:1048D00027EA0E07DF60DF68B2403A43DA600DE096
:1048E0001F6905EB450E072606FA0EF627EA0606AF
:1048F0001E611E6902FA0EF232431A614A68062AE4
:104900004FEA82010CD80A445E6B053A1F219140A0
:1049100026EA01015963596B94400C435C631AE029
:104920000C2A0CD80A441E6B233A1F21914026EA18
:1049300001011963196B94400C431C630BE00A449A
:10494000DE6A413A1F21914026EA0101D962D96A03
:1049500094400C43DC62164A934204D0002380F852
:104960003C30184622E0122D07D1124A536843F416
:104970008003536001E0022018E0A5F11003012B31
:10498000ECD80C4A5368102D43F400035360E5D172
:10499000094B0A4A1B68B3FBF2F20A235343019303
:1049A000019B002BDAD0019B013BF8E703B0F0BD7F
:1049B0000020014000230140E801002040420F0098
:1049C000704700002DE9F3410F6800220123934056
:1049D00003EA07059D4240F0B9804C6824F0100CB2
:1049E000BCF1020F14D14FEAD20E00EB8E0E02F092
:1049F0000706DEF82030B6004FF00F0808FA06F878
:104A000023EA08080B69B34048EA0303CEF82030D4
:104A10004FEA420E0323066803FA0EF3DB4303EA70
:104A2000060804F0030606FA0EF60CF1FF3C48EA0D
:104A30000606BCF1010F066011D8866803EA060C71
:104A4000CE6806FA0EF64CEA06068660466826EA46
:104A5000050CC4F3001696404CEA06064660C6688C
:104A600003EA060C8B6803FA0EF64CEA0603C360F1
:104A7000E3006BD5394E00230193D6F844E04EF4A1
:104A8000804EC6F844E0766C06F480460196019E9E
:104A900022F0030606F1804606F59C3602F0030C70
:104AA000D6F808804FEA8C0C4FF00F0E0EFA0CFE71
:104AB00028EA0E0EDFF8AC80404519D003F18043A0
:104AC00003F5013398420ED003F5806398420CD071
:104AD00003F5806398420AD003F5806398420CBFC7
:104AE0000423052304E0012302E0022300E0032362
:104AF00003FA0CF343EA0E03DFF864E0B360DEF878
:104B00000030EE4314F4803F14BF2B433340CEF803
:104B10000030DEF80430DFF848E014F4003F14BF42
:104B20002B433340CEF80430DEF8083014F4801FF5
:104B300014BF2B433340CEF80830DEF80C30A4020B
:104B400054BF06EA03051D43054BDD600132102A00
:104B50007FF43CAF02B0BDE8F08100BF00380240F6
:104B6000003C0140000002402DE9F04100224FF0DE
:104B7000010C0CFA02F303EA010E9E455FD10323F8
:104B800002FA0CF5046803FA05F5ED4322FA03F77F
:104B90002C4000EB8707046002F007083C6A0F26F0
:104BA0004FEA880806FA08F824EA08043C62876895
:104BB000DFF89C802F40876047686FEA0E0427402B
:104BC0004760C7683D40C56022F0030505F1804598
:104BD00005F59C3502EA0307D5F808E0BF00BE40A2
:104BE000404506EA0E0E11D008F5806840450FD00A
:104BF000DFF860C060450DD00CF5806C60450AD0D0
:104C0000114B98420CBF0423052304E0002302E06B
:104C1000634600E00223BB409E4510D1AB6823EA07
:104C200006060A4BAE601D6825401D605D68254084
:104C30005D609D6825409D60DD682C40DC60013230
:104C4000102A94D1BDE8F08100100240003C0140E0
:104C500000000240000802400368F7B5D907044687
:104C600003D423689A073BD488E0A74B9A6802F0E4
:104C70000C02042A07D09A6802F00C02082A0BD111
:104C80005B685B0208D5A04B1B689F03E9D563688E
:104C9000002BE6D1012034E19C4B22791A70636825
:104CA0007BB1FFF797FC0546974B1B689E03D8D452
:104CB000FFF790FC41F28833401B9842F4D903205F
:104CC0001FE1FFF787FC05468F4B1B689803C8D58B
:104CD000FFF780FC41F28833401B9842F4D9EEE79D
:104CE000894B9A6812F00C0F07D09A6802F00C02F8
:104CF000082A16D15B68590213D4834B1A689207AD
:104D000002D5E268012AC5D11968F82090FAA0F00E
:104D10002269B0FA80F021F0F80182400A431A605B
:104D20002CE0E2687A4BDAB101221A60FFF752FCFC
:104D30000546754803689F0705D4FFF74BFC401BE9
:104D40000228F6D9BBE70268F82191FAA1F123699C
:104D5000B1FA81F122F0F8028B40134303600DE0B9
:104D60001A60FFF737FC0546674B1B689E0705D5A1
:104D7000FFF730FC401B0228F6D9A0E7236818078C
:104D800003D42368590744D51FE06269614B72B1AF
:104D900001221A60FFF71EFC05465B4B5B6F9A070A
:104DA000EFD4FFF717FC401B0228F6D987E71A60FB
:104DB000FFF710FC0546544B5B6F9B07E1D5FFF7EF
:104DC00009FC401B0228F6D979E7002301934E4BDA
:104DD0001A6C42F080521A641B6C4F4A03F08053E5
:104DE0000193019B136843F480731360FFF7F2FB98
:104DF0000546494B1B68DF050ED5484B227A1A70D1
:104E0000A368BBB1FFF7E6FB05463F4B1B6F9E0750
:104E100008D5A269EAB959E0FFF7DCFB401B02287C
:104E2000E7D94CE7FFF7D6FB41F28833401B9842A5
:104E3000EBD944E7FFF7CEFB0546334B1B6F9807D2
:104E4000E7D5FFF7C7FB41F28833401B9842F4D9FE
:104E500035E72D4B9B6803F00C03082B3FF41AAF8A
:104E60002F4D0023022A2B603ED1FFF7B3FB0646ED
:104E70002548036899012BD447F6C07797FAA7F71E
:104E80004FF44036B7FA87F796FAA6F64FF07061FE
:104E9000B6FA86F691FAA1F1E369226AB1FA81F1D4
:104EA0001A43636ABB401A43A36A5B08013BB340E1
:104EB0001343E26A8A401343436001232B60FFF7E8
:104EC00089FB0446104B1B689A0107D5002018E0A7
:104ED000FFF780FB801B0228CAD9F0E6FFF77AFBB8
:104EE000001B0228EED9EAE6FFF774FB0446064BE6
:104EF0001B689B01EAD5FFF76DFB001B0228F6D962
:104F0000DDE603B0F0BD00BF0038024002380240C9
:104F100000004742800E4742007000407038024057
:104F20006000474210B51C4CA36803F00C03042B2F
:104F30002ED0082B2ED1626802F03F03626847F63C
:104F4000C07112F4800F626891FAA1F147F6C07047
:104F500000EA020008BF114AB1FA81F120FA01F01B
:104F60000EBFB2FBF3F20E49B1FBF3F202FB00F30A
:104F7000094A50684FF4403292FAA2F200F44030ED
:104F8000B2FA82F2D04001304000B3FBF0F010BD25
:104F9000034810BD014810BD003802400024F40051
:104FA00000127A00584B1A6802F00F02914270B555
:104FB00004460D460AD82168880710D553488368EF
:104FC00023F0F002A3681343836008E0CAB21A70AA
:104FD0001B6803F00F038B42EDD0012070BDC907A1
:104FE00006D4494B1A6802F00F0295425AD360E08A
:104FF0006368464A012B03D1126812F4003F08E0AF
:10500000991E0129126802D812F0007F01E012F007
:10501000020FE2D03D498A6822F0030213438B60FD
:10502000FFF7D8FA6368012B06460ED1374B9B6811
:1050300003F00C03042BD4D0FFF7CCFA41F28833F1
:10504000801B9842F2D9032070BD022B0DD12F4B4B
:105050009B6803F00C03082BC3D0FFF7BBFA41F2A7
:105060008833801B9842F2D9EDE7032B14D1274BEC
:105070009B6803F00C030C2BB3D0FFF7ABFA41F2A3
:105080008833801B9842F2D9DDE7FFF7A3FA41F29B
:105090008833801B9842D6D81C4B9B6813F00C0FAA
:1050A000F3D19EE7EAB21A701B6803F00F03AB421C
:1050B00093D121684A0706D51448836823F4E05247
:1050C000E368134383600B0741BF104A216993686B
:1050D00023F4604344BF43EAC1039360FFF722FF18
:1050E0000A4BF0229B6892FAA2F203F0F003B2FAA4
:1050F00082F2D340064AD35CD840064B18600F209A
:10510000FEF7BCFA002070BD003C024000380240AF
:10511000D9200408E8010020084B4FF4E0529B68B6
:1051200092FAA2F203F4E053B2FA82F2D340044AB4
:10513000D35C044A1068D840704700BF0038024072
:10514000D9200408E8010020084B4FF460429B6816
:1051500092FAA2F203F46043B2FA82F2D340044A14
:10516000D35C044A1068D840704700BF0038024042
:10517000D9200408E80100200F2303600B4B9A6834
:1051800002F0030242609A6802F0F00282609A68BC
:1051900002F4E052C2609B6803F46043DB080361E1
:1051A000034B1B6803F00F030B607047003802408D
:1051B000003C0240036A23F001030362036A426871
:1051C00070B584690D6824F07304254323F002044C
:1051D0008B6823430A4CA0420BD1CC688E6923F024
:1051E000080323434C6922F44072344323F0040340
:1051F000224342604A6885614263036270BD00BF1A
:1052000000000140036A23F480730362036A42686A
:1052100030B5C4690D6824F073042C438D6823F401
:10522000007343EA05230C4DA8420ED1CD6823F448
:10523000006343EA05234D6922F4405242EA051215
:105240008D6923F4806342EA051242604A68C461B2
:10525000C263036230BD00BF00000140036A23F453
:1052600080530362036A30B54468C2690D6822F452
:10527000E64242EA05228D6823F4005343EA0533EF
:10528000064DA84202BF4D6924F4804444EA8514C7
:105290004460C2614A680264036230BD000001409C
:1052A00070477047224A036890420ED0B0F1804F99
:1052B0000BD0A2F57C42904207D002F5806290426A
:1052C00003D002F58062904214D14A6823F0700343
:1052D0001343174A904225D0B0F1804F22D0154A8F
:1052E00090421FD002F5806290421BD002F580628E
:1052F000904217D0104A904214D002F5806290423A
:1053000010D002F5806290420CD003608B68C362BB
:105310000B688362064B984204BF0B690363012349
:1053200043617047CA6823F440731343EDE700BF3D
:1053300000000140000400400040014010B5044658
:10534000A0B190F8393003F0FF021BB980F8382083
:10535000FFF7A6FF022384F839302068211DFFF7EC
:10536000A1FF012384F83930002010BD012010BDB9
:1053700010B50446A0B190F8393003F0FF021BB914
:1053800080F83820FFF78DFF022384F83930206839
:10539000211DFFF787FF012384F83930002010BD5D
:1053A000012010BD036A23F010030362036A426800
:1053B00030B584690D6824F4E64444EA05248D6818
:1053C00023F0200343EA05130B4DA8420ED1CD680C
:1053D00023F0800343EA05134D6922F4406242EA58
:1053E00085028D6923F0400342EA850242604A68E3
:1053F00084618263036230BD0000014038B590F8DB
:105400003830012B04460D464FF0020058D00123DE
:1054100084F8383084F839000C2A4BD8DFE802F0E1
:10542000074A4A4A174A4A4A294A4A4A39002068DA
:10543000FFF7C0FE23689A6942F008029A619A69F0
:1054400022F004029A6199692A690A430FE02068F0
:10545000FFF7A8FF236829699A6942F400629A61FC
:105460009A6922F480629A619A6942EA01229A61F9
:1054700020E02068FFF7C6FE2368DA6942F00802E0
:10548000DA61DA6922F00402DA61D9692A690A4329
:105490000FE02068FFF7E2FE23682969DA6942F429
:1054A0000062DA61DA6922F48062DA61DA6942EA7A
:1054B0000122DA610123002084F8393084F83800B1
:1054C00038BD10B50123046A8B4024EA030303624C
:1054D000036A8A401343036210BD000010B50446FE
:1054E00001220068FFF7EDFF2368064A934202BFDE
:1054F0005A6C42F400425A641A6842F001021A607F
:10550000002010BD0000014010B5044601220068D3
:10551000FFF7D7FF2368064A934202BF5A6C42F452
:1055200000425A641A6842F001021A60002010BD5D
:105530000000014010B50423046A8B4024EA0303F1
:105540000362036A8A401343036210BD10B5044628
:1055500004220068FFF7EEFF23685A6C42F4004211
:105560005A641A6842F001021A60002010BD00005F
:105570002DE9F04706683369044623F44052C368B6
:105580002169C0691343A2683361F36811436269FA
:1055900023F416430A43024323F00C031343F3603E
:1055A000736923F44072A369B0F5004F43EA020324
:1055B00073617B4B7CD19E4203D003F580639E4296
:1055C00031D1FFF7C1FD636819254FEA43086843ED
:1055D000B0FBF8F8FFF7B8FD676868437F00B0FBE1
:1055E000F7F7FFF7B1FD63684FF064095B006843AC
:1055F000B0FBF3F0B0FBF9F009FB1077FFF7A4FD67
:10560000B8FBF9F86268FF003237B7FBF9F707F02B
:10561000F807684352004FEA08187F00B0FBF2FA1F
:10562000FFF792FD30E0FFF777FD636819254FEA39
:1056300043086843B0FBF8F8FFF76EFD67686843FE
:105640007F00B0FBF7F7FFF767FD63684FF0640971
:105650005B006843B0FBF3F0B0FBF9F009FB107797
:10566000FFF75AFDB8FBF9F8FF0062683237B7FB65
:10567000F9F707F0F807684352004FEA08187F006F
:10568000B0FBF2FAFFF748FD454360684000B5FB08
:10569000F0F0B0FBF9F009FB10A2D2003232B2FBFD
:1056A000F9F303F0070343441F44B760BDE8F087F4
:1056B0009E4202D03B4B9E422ED1FFF745FD6768CC
:1056C00019256843BF00B0FBF7F7FFF73DFD63689E
:1056D00068439B00B0FBF3F8FFF736FD63684FF0BB
:1056E000640968439B00B0FBF3F0B0FBF9F009FBE1
:1056F00010831B013233B3FBF9F303F0F008FFF71B
:1057000023FDB7FBF9F76268684392003F01B0FBE5
:10571000F2FAFFF719FD2DE0FFF7FEFC6768192587
:105720006843BF00B0FBF7F7FFF7F6FC6368684318
:105730009B00B0FBF3F8FFF7EFFC63684FF06409E0
:105740009B006843B0FBF3F0B0FBF9F009FB10835A
:105750001B013233B3FBF9F303F0F008FFF7DCFC75
:10576000B7FBF9F76268684392003F01B0FBF2FAB9
:10577000FFF7D2FC454360688000B5FBF0F0B0FB5A
:10578000F9F009FB10A212013232B2FBF9F202F079
:105790000F0208EB02033B44B360BDE8F08700BF93
:1057A0000010014000140140704710B5044640B39A
:1057B00090F8393003F0FF021BB980F83820FFF76A
:1057C000F3FF2268242384F83930D36823F400538C
:1057D000D3602046FFF7CCFE23681A6922F490427A
:1057E0001A615A6922F02A025A61DA6842F40052B8
:1057F000DA6000202023E06384F8393084F83A30FE
:1058000010BD012010BD0000174A1849936803F02D
:105810000C03042B03D0082B03D0154B18E0154BB9
:1058200016E05068536810F4800F03F03F0350688F
:1058300014BF104A0E4AB2FBF3F30B4A5268C2F38C
:105840000142C0F38810013243435200B3FBF2F32C
:105850000B60054B084A9B68C3F30313D25C0B68CB
:10586000D3400B60704700BF00380240E8010020C1
:105870000024F40000127A00E920040810B594B066
:10588000214B002101911A6C42F080521A641B6C6A
:105890001E4A03F080530193019B0291136823F485
:1058A000404343F400431360136803F440430293FE
:1058B000029B0123089300B1052309934FF4800351
:1058C0000F93082310934FF4A87311930423022419
:1058D000129308A807230E941393FFF7BDF978B924
:1058E0000F23039305904FF480530790214603A89C
:1058F00004940693FFF756FBB0FA80F0400900E0ED
:10590000002014B010BD00BF0038024000700040FD
:1059100030B595B00024204B01941A6C42F08052AF
:105920001A641B6C1D4A03F080530193019B02947F
:10593000136823F4404343F400431360136809944D
:1059400003F440430293029B0F9403230893012323
:105950000B9310230C9310934FF4A873119304230B
:105960000225129308A807230E951393FFF774F9E5
:1059700078B90F23039305904FF48053079029467D
:1059800003A804950693FFF70DFBB0FA80F04009D9
:1059900000E0204615B030BD0038024000700040E5
:1059A00008B50120FFF76AFF30B9FFF767FF18B9A4
:1059B000FFF7AEFF00B9FEE708BD0000174AD2F8B6
:1059C000883010B543F47003154CC2F88830236852
:1059D000002143F001032360A160236823F0847356
:1059E00023F4803323600F4B6360236823F4802308
:1059F00023604FF00063E16093600B4B0B4A1A6029
:105A0000FEF7C8FDFFF7CCFF236A43F008032362CB
:105A1000236A23F00803236210BD00BF00ED00E0FD
:105A20000038024010300024E80100200024F40077
:105A3000054B186830B901221A60044B044A1A60F9
:105A4000FDF71CBE704700BFA01B0020E432002001
:105A5000000C004008B5044B1B680BB9FFF7E8FFCA
:105A6000024B586A08BD00BFA01B0020000C00407C
:105A7000044B054A13605863DA6842F00202DA60A8
:105A8000704700BF000C0040E4320020034B044A82
:105A90001360DA6822F00202DA607047000C0040FE
:105AA000E4320020034A044B13606FF002021A61D3
:105AB000704700BFE4320020000C004010B5002306
:105AC000036043600A782F2A044613D14A788AB1CA
:105AD000481C2060194623681A782F2A02D1013306
